:020000040800F2
:1000000000200020E90100082D0200082D02000850
:100010002D0200082D0200082D020008000000003B
:100020000000000000000000000000002D02000899
:100030002D020008000000002D0200082D0200081B
:100040002D0200082D0200082D0200082D020008D4
:100050002D0200082D0200082D0200082D020008C4
:100060002D0200082D0200082D0200082D020008B4
:100070002D0200082D0200082D0200082D020008A4
:100080002D0200082D0200082D02000800000000CB
:100090000000000000000000000000002D02000829
:1000A0002D0200082D0200082D0200082D02000874
:1000B0002D0200082D0200082D0200082D02000864
:1000C0002D0200082D0200082D0200082D02000854
:1000D0002D0200082D0200082D0200082D02000844
:1000E0002D0200082D0200082D020008000000006B
:1000F0000000000000000000000000000000000000
:1001000000000000000000000000000000000000EF
:1001100000000000000000002D0200082D02000871
:1001200000000000000000000000000000000000CF
:1001300000000000000000000000000000000000BF
:1001400000000000000000000000000000000000AF
:10015000000000000000000000000000000000009F
:10016000000000000000000000000000000000008F
:10017000000000000000000000000000000000007F
:10018000000000000000000000000000000000006F
:10019000000000000000000000000000000000005F
:1001A000000000000000000000000000000000004F
:1001B000000000000000000000000000000000003F
:1001C0000000000000000000000000005FF808F1DF
:1001D00080B400AF00BFBD4680BC704780B500AFA3
:1001E000FFF7F6FFFCE700BF002103E00A4B5B5876
:1001F0004350043109480A4B42189A42F6D3094A3F
:1002000002E0002342F8043B074B9A42F9D300F086
:100210000FF8FFF7E3FF7047D40800080000002044
:10022000000000200000002000000020FEE7000089
:1002300080B500AF174B174A126842F001021A60EE
:10024000144A144B5968144B01EA03035360114AD2
:10025000104B1B6823F0847323F4803313600D4B21
:100260000C4A126822F480221A600A4B094A52682A
:1002700022F4FE025A60074B4FF41F029A60054BAE
:100280004FF00002DA6200F00BF8044B4FF000620E
:100290009A6080BD001002400000FFF800ED00E011
:1002A00080B500AF00F002F880BD00BF80B483B01D
:1002B00000AF4FF000037B604FF000033B60314B19
:1002C000304A126842F480321A602E4B1B6803F4E5
:1002D00000333B607B6803F101037B603B68002BCC
:1002E00003D17B68B3F5A06FEFD1264B1B6803F4F5
:1002F0000033002B03D04FF001033B6002E04FF0CE
:1003000000033B603B68012B37D11E4B1D4A5268EE
:100310005A601C4B1B4A52685A601A4B194A526861
:100320005A60184B174A526822F47C125A60154BD7
:10033000144A526842F498125A60124B114A1268D9
:1003400042F080721A6000BF0E4B1B6803F000730E
:10035000002BF9D00B4B0B4A526822F003025A6073
:10036000084B084A526842F002025A6000BF054B2F
:100370005B6803F00C03082BF9D107F10C07BD46AD
:0803800080BC70470010024030
:04000005080001E905
:00000001FF
